{
  "contractName": "RaffleTruffle",
  "abi": [
    {
      "constant": true,
      "inputs": [],
      "name": "dailyJackpotRate",
      "outputs": [
        {
          "name": "",
          "type": "uint256"
        }
      ],
      "payable": false,
      "stateMutability": "view",
      "type": "function"
    },
    {
      "constant": true,
      "inputs": [
        {
          "name": "",
          "type": "uint256"
        }
      ],
      "name": "lotteries",
      "outputs": [
        {
          "name": "creator",
          "type": "address"
        },
        {
          "name": "name",
          "type": "string"
        },
        {
          "name": "jackpot",
          "type": "uint256"
        },
        {
          "name": "maxTickets",
          "type": "uint256"
        },
        {
          "name": "ticketPrice",
          "type": "uint256"
        },
        {
          "name": "ticketCount",
          "type": "uint256"
        },
        {
          "name": "endTime",
          "type": "uint256"
        }
      ],
      "payable": false,
      "stateMutability": "view",
      "type": "function"
    },
    {
      "constant": true,
      "inputs": [],
      "name": "dailyJackpot",
      "outputs": [
        {
          "name": "",
          "type": "uint256"
        }
      ],
      "payable": false,
      "stateMutability": "view",
      "type": "function"
    },
    {
      "constant": true,
      "inputs": [
        {
          "name": "",
          "type": "uint256"
        }
      ],
      "name": "lotteryToWinner",
      "outputs": [
        {
          "name": "",
          "type": "address"
        }
      ],
      "payable": false,
      "stateMutability": "view",
      "type": "function"
    },
    {
      "constant": true,
      "inputs": [],
      "name": "nextDailyJackpot",
      "outputs": [
        {
          "name": "",
          "type": "uint256"
        }
      ],
      "payable": false,
      "stateMutability": "view",
      "type": "function"
    },
    {
      "constant": true,
      "inputs": [],
      "name": "creatorRate",
      "outputs": [
        {
          "name": "",
          "type": "uint256"
        }
      ],
      "payable": false,
      "stateMutability": "view",
      "type": "function"
    },
    {
      "constant": true,
      "inputs": [],
      "name": "ownerRate",
      "outputs": [
        {
          "name": "",
          "type": "uint256"
        }
      ],
      "payable": false,
      "stateMutability": "view",
      "type": "function"
    },
    {
      "constant": true,
      "inputs": [],
      "name": "maxDuration",
      "outputs": [
        {
          "name": "",
          "type": "uint256"
        }
      ],
      "payable": false,
      "stateMutability": "view",
      "type": "function"
    },
    {
      "constant": true,
      "inputs": [
        {
          "name": "",
          "type": "uint256"
        }
      ],
      "name": "endingLotteries",
      "outputs": [
        {
          "name": "",
          "type": "uint256"
        }
      ],
      "payable": false,
      "stateMutability": "view",
      "type": "function"
    },
    {
      "constant": true,
      "inputs": [
        {
          "name": "",
          "type": "address"
        }
      ],
      "name": "playerLotteryCount",
      "outputs": [
        {
          "name": "",
          "type": "uint256"
        }
      ],
      "payable": false,
      "stateMutability": "view",
      "type": "function"
    },
    {
      "constant": true,
      "inputs": [],
      "name": "owner",
      "outputs": [
        {
          "name": "",
          "type": "address"
        }
      ],
      "payable": false,
      "stateMutability": "view",
      "type": "function"
    },
    {
      "constant": true,
      "inputs": [],
      "name": "basicLotteryPrice",
      "outputs": [
        {
          "name": "",
          "type": "uint256"
        }
      ],
      "payable": false,
      "stateMutability": "view",
      "type": "function"
    },
    {
      "constant": true,
      "inputs": [],
      "name": "basicTicketPrice",
      "outputs": [
        {
          "name": "",
          "type": "uint256"
        }
      ],
      "payable": false,
      "stateMutability": "view",
      "type": "function"
    },
    {
      "constant": false,
      "inputs": [
        {
          "name": "newOwner",
          "type": "address"
        }
      ],
      "name": "transferOwnership",
      "outputs": [],
      "payable": false,
      "stateMutability": "nonpayable",
      "type": "function"
    },
    {
      "constant": true,
      "inputs": [
        {
          "name": "",
          "type": "uint256"
        }
      ],
      "name": "lotteryToTerminator",
      "outputs": [
        {
          "name": "",
          "type": "address"
        }
      ],
      "payable": false,
      "stateMutability": "view",
      "type": "function"
    },
    {
      "inputs": [],
      "payable": false,
      "stateMutability": "nonpayable",
      "type": "constructor"
    },
    {
      "payable": true,
      "stateMutability": "payable",
      "type": "fallback"
    },
    {
      "anonymous": false,
      "inputs": [
        {
          "indexed": false,
          "name": "lotteryId",
          "type": "uint256"
        },
        {
          "indexed": false,
          "name": "name",
          "type": "string"
        }
      ],
      "name": "NewLottery",
      "type": "event"
    },
    {
      "anonymous": false,
      "inputs": [
        {
          "indexed": false,
          "name": "lotteryId",
          "type": "uint256"
        },
        {
          "indexed": false,
          "name": "winner",
          "type": "address"
        },
        {
          "indexed": false,
          "name": "luckyTicket",
          "type": "uint256"
        }
      ],
      "name": "LotteryWinner",
      "type": "event"
    },
    {
      "anonymous": false,
      "inputs": [
        {
          "indexed": true,
          "name": "previousOwner",
          "type": "address"
        },
        {
          "indexed": true,
          "name": "newOwner",
          "type": "address"
        }
      ],
      "name": "OwnershipTransferred",
      "type": "event"
    },
    {
      "constant": false,
      "inputs": [
        {
          "name": "name",
          "type": "string"
        },
        {
          "name": "ticketPrice",
          "type": "uint256"
        },
        {
          "name": "maxTickets",
          "type": "uint256"
        },
        {
          "name": "duration",
          "type": "uint256"
        }
      ],
      "name": "createLottery",
      "outputs": [],
      "payable": true,
      "stateMutability": "payable",
      "type": "function"
    },
    {
      "constant": false,
      "inputs": [
        {
          "name": "lotteryId",
          "type": "uint256"
        }
      ],
      "name": "endLottery",
      "outputs": [],
      "payable": false,
      "stateMutability": "nonpayable",
      "type": "function"
    },
    {
      "constant": false,
      "inputs": [
        {
          "name": "lotteryId",
          "type": "uint256"
        }
      ],
      "name": "joinLottery",
      "outputs": [],
      "payable": true,
      "stateMutability": "payable",
      "type": "function"
    },
    {
      "constant": true,
      "inputs": [
        {
          "name": "_lotteryId",
          "type": "uint256"
        }
      ],
      "name": "getWinnerByLottery",
      "outputs": [
        {
          "name": "",
          "type": "address"
        }
      ],
      "payable": false,
      "stateMutability": "view",
      "type": "function"
    },
    {
      "constant": false,
      "inputs": [
        {
          "name": "lotteryId",
          "type": "uint256"
        }
      ],
      "name": "jackpotDonation",
      "outputs": [],
      "payable": true,
      "stateMutability": "payable",
      "type": "function"
    },
    {
      "constant": false,
      "inputs": [],
      "name": "withdraw",
      "outputs": [],
      "payable": false,
      "stateMutability": "nonpayable",
      "type": "function"
    },
    {
      "constant": true,
      "inputs": [],
      "name": "getContractBalance",
      "outputs": [
        {
          "name": "",
          "type": "uint256"
        }
      ],
      "payable": false,
      "stateMutability": "view",
      "type": "function"
    },
    {
      "constant": false,
      "inputs": [
        {
          "name": "newJackpotRate",
          "type": "uint256"
        },
        {
          "name": "newCreatorRate",
          "type": "uint256"
        },
        {
          "name": "newOwnerRate",
          "type": "uint256"
        }
      ],
      "name": "setRate",
      "outputs": [],
      "payable": false,
      "stateMutability": "nonpayable",
      "type": "function"
    },
    {
      "constant": true,
      "inputs": [
        {
          "name": "lotteryId",
          "type": "uint256"
        },
        {
          "name": "ticket",
          "type": "uint256"
        }
      ],
      "name": "ticketToAddress",
      "outputs": [
        {
          "name": "",
          "type": "address"
        }
      ],
      "payable": false,
      "stateMutability": "view",
      "type": "function"
    },
    {
      "constant": false,
      "inputs": [
        {
          "name": "myid",
          "type": "bytes32"
        },
        {
          "name": "result",
          "type": "string"
        }
      ],
      "name": "__callback",
      "outputs": [],
      "payable": false,
      "stateMutability": "nonpayable",
      "type": "function"
    },
    {
      "constant": false,
      "inputs": [
        {
          "name": "_queryId",
          "type": "bytes32"
        },
        {
          "name": "_result",
          "type": "string"
        },
        {
          "name": "_proof",
          "type": "bytes"
        }
      ],
      "name": "__callback",
      "outputs": [],
      "payable": false,
      "stateMutability": "nonpayable",
      "type": "function"
    }
  ],
  "bytecode": "0x6060604052600a6006556005600755600560085563240c840160095566071afd498d0000600c55660e35fa931a0000600d55341561003c57600080fd5b336000806101000a81548173ffffffffffffffffffffffffffffffffffffffff021916908373ffffffffffffffffffffffffffffffffffffffff160217905550736f485c8bf6fc43ea212e93bbf8ce046c7f1cb475600160006101000a81548173ffffffffffffffffffffffffffffffffffffffff021916908373ffffffffffffffffffffffffffffffffffffffff1602179055506151fb806100e06000396000f300606060405260043610610154576000357c0100000000000000000000000000000000000000000000000000000000900463ffffffff16806305f12b16146101565780630af0cf07146101c35780631398e076146101ec5780631c64e4dd146102de578063232f2f531461030757806327dc297e1461036a578063281d098d146103d45780633739e7691461043757806337b6565a1461045a57806338bbfa50146104835780633989c666146105305780633ccfd60b146105655780634baa3faa1461057a578063688cdba8146105a35780636db5c8fd146105cc5780636f9fb98a146105f55780637a2042981461061e5780637d5c748a146106555780637eee9fc1146106a25780638da5cb5b146106ba578063985318c51461070f5780639e24293414610738578063a6c6f01314610750578063d1b0ca22146107bc578063f2fde38b146107e5578063f67450f31461081e575b005b6101c1600480803590602001908201803590602001908080601f01602080910402602001604051908101604052809392919081815260200183838082843782019150505050505091908035906020019091908035906020019091908035906020019091905050610881565b005b34156101ce57600080fd5b6101d6610b17565b6040518082815260200191505060405180910390f35b34156101f757600080fd5b61020d6004808035906020019091905050610b1d565b604051808873ffffffffffffffffffffffffffffffffffffffff1673ffffffffffffffffffffffffffffffffffffffff16815260200180602001878152602001868152602001858152602001848152602001838152602001828103825288818151815260200191508051906020019080838360005b8381101561029d578082015181840152602081019050610282565b50505050905090810190601f1680156102ca5780820380516001836020036101000a031916815260200191505b509850505050505050505060405180910390f35b34156102e957600080fd5b6102f1610c26565b6040518082815260200191505060405180910390f35b341561031257600080fd5b6103286004808035906020019091905050610c2c565b604051808273ffffffffffffffffffffffffffffffffffffffff1673ffffffffffffffffffffffffffffffffffffffff16815260200191505060405180910390f35b341561037557600080fd5b6103d260048080356000191690602001909190803590602001908201803590602001908080601f01602080910402602001604051908101604052809392919081815260200183838082843782019150505050505091905050610c5f565b005b34156103df57600080fd5b6103f56004808035906020019091905050610c91565b604051808273ffffffffffffffffffffffffffffffffffffffff1673ffffffffffffffffffffffffffffffffffffffff16815260200191505060405180910390f35b341561044257600080fd5b6104586004808035906020019091905050610cce565b005b341561046557600080fd5b61046d611066565b6040518082815260200191505060405180910390f35b341561048e57600080fd5b61052e60048080356000191690602001909190803590602001908201803590602001908080601f0160208091040260200160405190810160405280939291908181526020018383808284378201915050505050509190803590602001908201803590602001908080601f0160208091040260200160405190810160405280939291908181526020018383808284378201915050505050509190505061106c565b005b341561053b57600080fd5b6105636004808035906020019091908035906020019091908035906020019091905050611378565b005b341561057057600080fd5b610578611400565b005b341561058557600080fd5b61058d6114d5565b6040518082815260200191505060405180910390f35b34156105ae57600080fd5b6105b66114db565b6040518082815260200191505060405180910390f35b34156105d757600080fd5b6105df6114e1565b6040518082815260200191505060405180910390f35b341561060057600080fd5b6106086114e7565b6040518082815260200191505060405180910390f35b341561062957600080fd5b61063f6004808035906020019091905050611506565b6040518082815260200191505060405180910390f35b341561066057600080fd5b61068c600480803573ffffffffffffffffffffffffffffffffffffffff1690602001909190505061152a565b6040518082815260200191505060405180910390f35b6106b86004808035906020019091905050611542565b005b34156106c557600080fd5b6106cd611942565b604051808273ffffffffffffffffffffffffffffffffffffffff1673ffffffffffffffffffffffffffffffffffffffff16815260200191505060405180910390f35b341561071a57600080fd5b610722611967565b6040518082815260200191505060405180910390f35b61074e600480803590602001909190505061196d565b005b341561075b57600080fd5b61077a60048080359060200190919080359060200190919050506119b7565b604051808273ffffffffffffffffffffffffffffffffffffffff1673ffffffffffffffffffffffffffffffffffffffff16815260200191505060405180910390f35b34156107c757600080fd5b6107cf611a13565b6040518082815260200191505060405180910390f35b34156107f057600080fd5b61081c600480803573ffffffffffffffffffffffffffffffffffffffff16906020019091905050611a19565b005b341561082957600080fd5b61083f6004808035906020019091905050611b6e565b604051808273ffffffffffffffffffffffffffffffffffffffff1673ffffffffffffffffffffffffffffffffffffffff16815260200191505060405180910390f35b610889614e6e565b60006009548310151561089b57600080fd5b84600d5401341415156108ad57600080fd5b33826000019073ffffffffffffffffffffffffffffffffffffffff16908173ffffffffffffffffffffffffffffffffffffffff1681525050858260200181905250846002600d548115156108fd57fe5b0401826040018181525050838260600181815250508482608001818152505060018260a00181815250508242018260c00181815250506001600f80548060010182816109499190614ec8565b9160005260206000209060080201600085909190915060008201518160000160006101000a81548173ffffffffffffffffffffffffffffffffffffffff021916908373ffffffffffffffffffffffffffffffffffffffff16021790555060208201518160010190805190602001906109c2929190614efa565b5060408201518160020155606082015181600301556080820151816004015560a0820151816005015560c08201518160060155505003905033600f82815481101515610a0a57fe5b906000526020600020906008020160070160006001815260200190815260200160002060006101000a81548173ffffffffffffffffffffffffffffffffffffffff021916908373ffffffffffffffffffffffffffffffffffffffff1602179055507f5e473c502d063bf050ed1f4e96abaf3a714b79eb4c37f5455c39e4dec1282e4081876040518083815260200180602001828103825283818151815260200191508051906020019080838360005b83811015610ad4578082015181840152602081019050610ab9565b50505050905090810190601f168015610b015780820380516001836020036101000a031916815260200191505b50935050505060405180910390a1505050505050565b60065481565b600f81815481101515610b2c57fe5b90600052602060002090600802016000915090508060000160009054906101000a900473ffffffffffffffffffffffffffffffffffffffff1690806001018054600181600116156101000203166002900480601f016020809104026020016040519081016040528092919081815260200182805460018160011615610100020316600290048015610bfe5780601f10610bd357610100808354040283529160200191610bfe565b820191906000526020600020905b815481529060010190602001808311610be157829003601f168201915b5050505050908060020154908060030154908060040154908060050154908060060154905087565b600a5481565b60106020528060005260406000206000915054906101000a900473ffffffffffffffffffffffffffffffffffffffff1681565b610c8d82826000604051805910610c735750595b9080825280601f01601f191660200182016040525061106c565b5050565b60006010600083815260200190815260200160002060009054906101000a900473ffffffffffffffffffffffffffffffffffffffff169050919050565b610e29600f82815481101515610ce057fe5b906000526020600020906008020160e060405190810160405290816000820160009054906101000a900473ffffffffffffffffffffffffffffffffffffffff1673ffffffffffffffffffffffffffffffffffffffff1673ffffffffffffffffffffffffffffffffffffffff168152602001600182018054600181600116156101000203166002900480601f016020809104026020016040519081016040528092919081815260200182805460018160011615610100020316600290048015610de95780601f10610dbe57610100808354040283529160200191610de9565b820191906000526020600020905b815481529060010190602001808311610dcc57829003601f168201915b5050505050815260200160028201548152602001600382015481526020016004820154815260200160058201548152602001600682015481525050611ba1565b1515610e3457600080fd5b600073ffffffffffffffffffffffffffffffffffffffff166011600083815260200190815260200160002060009054906101000a900473ffffffffffffffffffffffffffffffffffffffff1673ffffffffffffffffffffffffffffffffffffffff16141515610ea257600080fd5b336011600083815260200190815260200160002060006101000a81548173ffffffffffffffffffffffffffffffffffffffff021916908373ffffffffffffffffffffffffffffffffffffffff1602179055503373ffffffffffffffffffffffffffffffffffffffff166108fc60646001600f85815481101515610f2157fe5b90600052602060002090600802016002015402811515610f3d57fe5b049081150290604051600060405180830381858888f193505050501515610f6357600080fd5b6001600f82815481101515610f7457fe5b906000526020600020906008020160050154141561103157600f81815481101515610f9b57fe5b906000526020600020906008020160000160009054906101000a900473ffffffffffffffffffffffffffffffffffffffff1673ffffffffffffffffffffffffffffffffffffffff166108fc600f83815481101515610ff557fe5b9060005260206000209060080201600201549081150290604051600060405180830381858888f19350505050151561102c57600080fd5b611063565b600e80548060010182816110459190614f7a565b916000526020600020900160008390919091505550611062611bb2565b5b50565b600b5481565b60008060008061107a611c05565b73ffffffffffffffffffffffffffffffffffffffff163373ffffffffffffffffffffffffffffffffffffffff161415156110b357600080fd5b60006110c0888888611ef8565b60ff161415156110cf57600080fd5b600e60008154811015156110df57fe5b9060005260206000209001549350600f848154811015156110fc57fe5b906000526020600020906008020160050154925082866040518082805190602001908083835b6020831015156111475780518252602082019150602081019050602083039250611122565b6001836020036101000a03801982511681845116808217855250505050505090500191505060405180910390206001900481151561118157fe5b069150600f8481548110151561119357fe5b9060005260206000209060080201600701600083815260200190815260200160002060009054906101000a900473ffffffffffffffffffffffffffffffffffffffff166010600086815260200190815260200160002060006101000a81548173ffffffffffffffffffffffffffffffffffffffff021916908373ffffffffffffffffffffffffffffffffffffffff1602179055507feea65a7a0f856fda25b2fb7eee87702295b2dbc3399a0c9e1cbe2abdd1feb03e846010600087815260200190815260200160002060009054906101000a900473ffffffffffffffffffffffffffffffffffffffff1684604051808481526020018373ffffffffffffffffffffffffffffffffffffffff1673ffffffffffffffffffffffffffffffffffffffff168152602001828152602001935050505060405180910390a1600e60008154811015156112dd57fe5b9060005260206000209001600090556001600e80549050111561136f57600090505b6001600e805490500381101561135857600e6001820181548110151561132157fe5b906000526020600020900154600e8281548110151561133c57fe5b90600052602060002090018190555080806001019150506112ff565b600e80548091906001900361136d9190614fa6565b505b50505050505050565b6000809054906101000a900473ffffffffffffffffffffffffffffffffffffffff1673ffffffffffffffffffffffffffffffffffffffff163373ffffffffffffffffffffffffffffffffffffffff161415156113d357600080fd5b603381838501011015156113e657600080fd5b826006819055508160078190555080600881905550505050565b6000809054906101000a900473ffffffffffffffffffffffffffffffffffffffff1673ffffffffffffffffffffffffffffffffffffffff163373ffffffffffffffffffffffffffffffffffffffff1614151561145b57600080fd5b6000809054906101000a900473ffffffffffffffffffffffffffffffffffffffff1673ffffffffffffffffffffffffffffffffffffffff166108fc3073ffffffffffffffffffffffffffffffffffffffff16319081150290604051600060405180830381858888f1935050505015156114d357600080fd5b565b60075481565b60085481565b60095481565b60003073ffffffffffffffffffffffffffffffffffffffff1631905090565b600e8181548110151561151557fe5b90600052602060002090016000915090505481565b60126020528060005260406000206000915090505481565b6000600f8281548110151561155357fe5b906000526020600020906008020190506116a28160e060405190810160405290816000820160009054906101000a900473ffffffffffffffffffffffffffffffffffffffff1673ffffffffffffffffffffffffffffffffffffffff1673ffffffffffffffffffffffffffffffffffffffff168152602001600182018054600181600116156101000203166002900480601f0160208091040260200160405190810160405280929190818152602001828054600181600116156101000203166002900480156116625780601f1061163757610100808354040283529160200191611662565b820191906000526020600020905b81548152906001019060200180831161164557829003601f168201915b5050505050815260200160028201548152602001600382015481526020016004820154815260200160058201548152602001600682015481525050611ba1565b1515156116ae57600080fd5b3481600401541415156116c057600080fd5b3073ffffffffffffffffffffffffffffffffffffffff168160000160009054906101000a900473ffffffffffffffffffffffffffffffffffffffff1673ffffffffffffffffffffffffffffffffffffffff1614151561180b578060000160009054906101000a900473ffffffffffffffffffffffffffffffffffffffff1673ffffffffffffffffffffffffffffffffffffffff166108fc606460075481151561176557fe5b048360040154029081150290604051600060405180830381858888f19350505050151561179157600080fd5b6000809054906101000a900473ffffffffffffffffffffffffffffffffffffffff1673ffffffffffffffffffffffffffffffffffffffff166108fc60646008548115156117da57fe5b048360040154029081150290604051600060405180830381858888f19350505050151561180657600080fd5b611885565b6000809054906101000a900473ffffffffffffffffffffffffffffffffffffffff1673ffffffffffffffffffffffffffffffffffffffff166108fc60646008546007540181151561185857fe5b048360040154029081150290604051600060405180830381858888f19350505050151561188457600080fd5b5b8060050160008154809291906001019190505550338160070160008360050154815260200190815260200160002060006101000a81548173ffffffffffffffffffffffffffffffffffffffff021916908373ffffffffffffffffffffffffffffffffffffffff16021790555060646006548115156118ff57fe5b04816004015402600a5401600a819055506064600854600754600654010160640381151561192957fe5b0481600401540281600201540181600201819055505050565b6000809054906101000a900473ffffffffffffffffffffffffffffffffffffffff1681565b600d5481565b34600f8281548110151561197d57fe5b90600052602060002090600802016002015401600f8281548110151561199f57fe5b90600052602060002090600802016002018190555050565b6000600f838154811015156119c857fe5b9060005260206000209060080201600701600083815260200190815260200160002060009054906101000a900473ffffffffffffffffffffffffffffffffffffffff16905092915050565b600c5481565b6000809054906101000a900473ffffffffffffffffffffffffffffffffffffffff1673ffffffffffffffffffffffffffffffffffffffff163373ffffffffffffffffffffffffffffffffffffffff16141515611a7457600080fd5b600073ffffffffffffffffffffffffffffffffffffffff168173ffffffffffffffffffffffffffffffffffffffff1614151515611ab057600080fd5b8073ffffffffffffffffffffffffffffffffffffffff166000809054906101000a900473ffffffffffffffffffffffffffffffffffffffff1673ffffffffffffffffffffffffffffffffffffffff167f8be0079c531659141344cd1fd0a4f28419497f9722a3daafe3b4186f6b6457e060405160405180910390a3806000806101000a81548173ffffffffffffffffffffffffffffffffffffffff021916908373ffffffffffffffffffffffffffffffffffffffff16021790555050565b60116020528060005260406000206000915054906101000a900473ffffffffffffffffffffffffffffffffffffffff1681565b6000428260c0015111159050919050565b600080600080611be460307f01000000000000000000000000000000000000000000000000000000000000000261212f565b600493506000925062030d409150611bfd838584612467565b905050505050565b600080600160009054906101000a900473ffffffffffffffffffffffffffffffffffffffff1673ffffffffffffffffffffffffffffffffffffffff161480611c7757506000611c75600160009054906101000a900473ffffffffffffffffffffffffffffffffffffffff166127f1565b145b15611c8857611c8660006127fc565b505b600160009054906101000a900473ffffffffffffffffffffffffffffffffffffffff1673ffffffffffffffffffffffffffffffffffffffff166338cc48316040518163ffffffff167c0100000000000000000000000000000000000000000000000000000000028152600401602060405180830381600087803b1515611d0d57600080fd5b5af11515611d1a57600080fd5b5050506040518051905073ffffffffffffffffffffffffffffffffffffffff16600260009054906101000a900473ffffffffffffffffffffffffffffffffffffffff1673ffffffffffffffffffffffffffffffffffffffff16141515611e5757600160009054906101000a900473ffffffffffffffffffffffffffffffffffffffff1673ffffffffffffffffffffffffffffffffffffffff166338cc48316040518163ffffffff167c0100000000000000000000000000000000000000000000000000000000028152600401602060405180830381600087803b1515611dff57600080fd5b5af11515611e0c57600080fd5b50505060405180519050600260006101000a81548173ffffffffffffffffffffffffffffffffffffffff021916908373ffffffffffffffffffffffffffffffffffffffff1602179055505b600260009054906101000a900473ffffffffffffffffffffffffffffffffffffffff1673ffffffffffffffffffffffffffffffffffffffff1663c281d19e6040518163ffffffff167c0100000000000000000000000000000000000000000000000000000000028152600401602060405180830381600087803b1515611edc57600080fd5b5af11515611ee957600080fd5b50505060405180519050905090565b6000807f4c00000000000000000000000000000000000000000000000000000000000000836000815181101515611f2b57fe5b9060200101517f010000000000000000000000000000000000000000000000000000000000000090047f0100000000000000000000000000000000000000000000000000000000000000027effffffffffffffffffffffffffffffffffffffffffffffffffffffffffffff191614158061204057507f5000000000000000000000000000000000000000000000000000000000000000836001815181101515611fd057fe5b9060200101517f010000000000000000000000000000000000000000000000000000000000000090047f0100000000000000000000000000000000000000000000000000000000000000027effffffffffffffffffffffffffffffffffffffffffffffffffffffffffffff191614155b806120e9575060017f01000000000000000000000000000000000000000000000000000000000000000283600281518110151561207957fe5b9060200101517f010000000000000000000000000000000000000000000000000000000000000090047f0100000000000000000000000000000000000000000000000000000000000000027effffffffffffffffffffffffffffffffffffffffffffffffffffffffffffff191614155b156120f75760019150612127565b61210a838686612105612c94565b612d3c565b90506000151581151514156121225760029150612127565b600091505b509392505050565b6000600160009054906101000a900473ffffffffffffffffffffffffffffffffffffffff1673ffffffffffffffffffffffffffffffffffffffff1614806121a05750600061219e600160009054906101000a900473ffffffffffffffffffffffffffffffffffffffff166127f1565b145b156121b1576121af60006127fc565b505b600160009054906101000a900473ffffffffffffffffffffffffffffffffffffffff1673ffffffffffffffffffffffffffffffffffffffff166338cc48316040518163ffffffff167c0100000000000000000000000000000000000000000000000000000000028152600401602060405180830381600087803b151561223657600080fd5b5af1151561224357600080fd5b5050506040518051905073ffffffffffffffffffffffffffffffffffffffff16600260009054906101000a900473ffffffffffffffffffffffffffffffffffffffff1673ffffffffffffffffffffffffffffffffffffffff1614151561238057600160009054906101000a900473ffffffffffffffffffffffffffffffffffffffff1673ffffffffffffffffffffffffffffffffffffffff166338cc48316040518163ffffffff167c0100000000000000000000000000000000000000000000000000000000028152600401602060405180830381600087803b151561232857600080fd5b5af1151561233557600080fd5b50505060405180519050600260006101000a81548173ffffffffffffffffffffffffffffffffffffffff021916908373ffffffffffffffffffffffffffffffffffffffff1602179055505b600260009054906101000a900473ffffffffffffffffffffffffffffffffffffffff1673ffffffffffffffffffffffffffffffffffffffff1663688dcfd7826040518263ffffffff167c010000000000000000000000000000000000000000000000000000000002815260040180827effffffffffffffffffffffffffffffffffffffffffffffffffffffffffffff19167effffffffffffffffffffffffffffffffffffffffffffffffffffffffffffff19168152602001915050600060405180830381600087803b151561245457600080fd5b5af1151561246157600080fd5b50505050565b6000612471614fd2565b612479614fd2565b612481614fd2565b600061248b614fe6565b60008089148061249b5750602089115b156124a557600080fd5b60016040518059106124b45750595b9080825280601f01601f19166020018201604052509550887f0100000000000000000000000000000000000000000000000000000000000000028660008151811015156124fd57fe5b9060200101907effffffffffffffffffffffffffffffffffffffffffffffffffffffffffffff1916908160001a905350602060405180591061253c5750595b9080825280601f01601f1916602001820160405250945060206040518059106125625750595b9080825280601f01601f19166020018201604052509350612581613407565b9250602085524241186001430340186020860152602084528260208501526060604051908101604052808681526020018781526020018581525091506125fe8a6040805190810160405280600681526020017f72616e646f6d0000000000000000000000000000000000000000000000000000815250848b6136fa565b90506127e1818b78010000000000000000000000000000000000000000000000000284600160038110151561262f57fe5b6020020151600286600060038110151561264557fe5b60200201516040518082805190602001908083835b60208310151561267f578051825260208201915060208101905060208303925061265a565b6001836020036101000a0380198251168184511680821785525050505050509050019150506020604051808303816000865af115156126bd57600080fd5b5050604051805190508660026003811015156126d557fe5b6020020151604051808577ffffffffffffffffffffffffffffffffffffffffffffffff191677ffffffffffffffffffffffffffffffffffffffffffffffff1916815260080184805190602001908083835b60208310151561274b5780518252602082019150602081019050602083039250612726565b6001836020036101000a038019825116818451168082178552505050505050905001836000191660001916815260200182805190602001908083835b6020831015156127ac5780518252602082019150602081019050602083039250612787565b6001836020036101000a0380198251168184511680821785525050505050509050019450505050506040518091039020613a44565b8096505050505050509392505050565b6000813b9050919050565b60008061281c731d3b2638a7cc9f2cb3d298a3da7a90b67e5506ed6127f1565b11156128be57731d3b2638a7cc9f2cb3d298a3da7a90b67e5506ed600160006101000a81548173ffffffffffffffffffffffffffffffffffffffff021916908373ffffffffffffffffffffffffffffffffffffffff1602179055506128b56040805190810160405280600b81526020017f6574685f6d61696e6e6574000000000000000000000000000000000000000000815250613a6c565b60019050612c8f565b60006128dd73c03a2615d5efaf5f49f60b7bb6583eaec212fdf16127f1565b111561297f5773c03a2615d5efaf5f49f60b7bb6583eaec212fdf1600160006101000a81548173ffffffffffffffffffffffffffffffffffffffff021916908373ffffffffffffffffffffffffffffffffffffffff1602179055506129766040805190810160405280600c81526020017f6574685f726f707374656e330000000000000000000000000000000000000000815250613a6c565b60019050612c8f565b600061299e73b7a07bcf2ba2f2703b24c0691b5278999c59ac7e6127f1565b1115612a405773b7a07bcf2ba2f2703b24c0691b5278999c59ac7e600160006101000a81548173ffffffffffffffffffffffffffffffffffffffff021916908373ffffffffffffffffffffffffffffffffffffffff160217905550612a376040805190810160405280600981526020017f6574685f6b6f76616e0000000000000000000000000000000000000000000000815250613a6c565b60019050612c8f565b6000612a5f73146500cfd35b22e4a392fe0adc06de1a1368ed486127f1565b1115612b015773146500cfd35b22e4a392fe0adc06de1a1368ed48600160006101000a81548173ffffffffffffffffffffffffffffffffffffffff021916908373ffffffffffffffffffffffffffffffffffffffff160217905550612af86040805190810160405280600b81526020017f6574685f72696e6b656279000000000000000000000000000000000000000000815250613a6c565b60019050612c8f565b6000612b20736f485c8bf6fc43ea212e93bbf8ce046c7f1cb4756127f1565b1115612b8457736f485c8bf6fc43ea212e93bbf8ce046c7f1cb475600160006101000a81548173ffffffffffffffffffffffffffffffffffffffff021916908373ffffffffffffffffffffffffffffffffffffffff16021790555060019050612c8f565b6000612ba37320e12a1f859b3feae5fb2a0a32c18f5a65555bbf6127f1565b1115612c07577320e12a1f859b3feae5fb2a0a32c18f5a65555bbf600160006101000a81548173ffffffffffffffffffffffffffffffffffffffff021916908373ffffffffffffffffffffffffffffffffffffffff16021790555060019050612c8f565b6000612c267351efaf4c8b3c9afbd5ab9f4bbc82784ab6ef8faa6127f1565b1115612c8a577351efaf4c8b3c9afbd5ab9f4bbc82784ab6ef8faa600160006101000a81548173ffffffffffffffffffffffffffffffffffffffff021916908373ffffffffffffffffffffffffffffffffffffffff16021790555060019050612c8f565b600090505b919050565b612c9c615014565b60038054600181600116156101000203166002900480601f016020809104026020016040519081016040528092919081815260200182805460018160011615610100020316600290048015612d325780601f10612d0757610100808354040283529160200191612d32565b820191906000526020600020905b815481529060010190602001808311612d1557829003601f168201915b5050505050905090565b6000806000612d49614fd2565b612d51614fd2565b612d59614fd2565b612d61614fd2565b600080612d6c614fd2565b602060028f6045815181101515612d7f57fe5b9060200101517f010000000000000000000000000000000000000000000000000000000000000090047f0100000000000000000000000000000000000000000000000000000000000000027f01000000000000000000000000000000000000000000000000000000000000009004016044010197506020604051805910612e035750595b9080825280601f01601f19166020018201604052509650612e298e8960208a6000613a86565b5060028b8e6040518083805190602001908083835b602083101515612e635780518252602082019150602081019050602083039250612e3e565b6001836020036101000a0380198251168184511680821785525050505050509050018260001916600019168152602001925050506020604051808303816000865af11515612eb057600080fd5b505060405180519050604051808260001916600019168152602001915050604051809103902060001916876040518082805190602001908083835b602083101515612f105780518252602082019150602081019050602083039250612eeb565b6001836020036101000a038019825116818451168082178552505050505050905001915050604051809103902060001916149850600015158915151415612f5a57600099506133f6565b60028e600160498b0101815181101515612f7057fe5b9060200101517f010000000000000000000000000000000000000000000000000000000000000090047f0100000000000000000000000000000000000000000000000000000000000000027f0100000000000000000000000000000000000000000000000000000000000000900401604051805910612fec5750595b9080825280601f01601f191660200182016040525095506130158e60498a018851896000613a86565b5061309e6002876040518082805190602001908083835b602083101515613051578051825260208201915060208101905060208303925061302c565b6001836020036101000a0380198251168184511680821785525050505050509050019150506020604051808303816000865af1151561308f57600080fd5b5050604051805190508d613aea565b98506000151589151514156130b657600099506133f6565b60296040518059106130c55750595b9080825280601f01601f191660200182016040525094506130ee8e60208a016029886000613a86565b50604080518059106130fd5750595b9080825280601f01601f1916602001820160405250935060418651602960208b0101010192506131358e604085036040876000613a86565b506002846040518082805190602001908083835b60208310151561316e5780518252602082019150602081019050602083039250613149565b6001836020036101000a0380198251168184511680821785525050505050509050019150506020604051808303816000865af115156131ac57600080fd5b505060405180519050915084826040518083805190602001908083835b6020831015156131ee57805182526020820191506020810190506020830392506131c9565b6001836020036101000a038019825116818451168082178552505050505050905001826000191660001916815260200192505050604051809103902060001916600460008f600019166000191681526020019081526020016000205460001916141561327857600460008e6000191660001916815260200190815260200160002060009055613281565b600099506133f6565b60496040518059106132905750595b9080825280601f01601f191660200182016040525090506132b68e896049846000613a86565b506133406002826040518082805190602001908083835b6020831015156132f257805182526020820191506020810190506020830392506132cd565b6001836020036101000a0380198251168184511680821785525050505050509050019150506020604051808303816000865af1151561333057600080fd5b5050604051805190508786613bfc565b985060001515891515141561335857600099506133f6565b6000151560056000846000191660001916815260200190815260200160002060009054906101000a900460ff16151514156133ca576133978e84613f13565b60056000846000191660001916815260200190815260200160002060006101000a81548160ff0219169083151502179055505b60056000836000191660001916815260200190815260200160002060009054906101000a900460ff1699505b505050505050505050949350505050565b600080600160009054906101000a900473ffffffffffffffffffffffffffffffffffffffff1673ffffffffffffffffffffffffffffffffffffffff16148061347957506000613477600160009054906101000a900473ffffffffffffffffffffffffffffffffffffffff166127f1565b145b1561348a5761348860006127fc565b505b600160009054906101000a900473ffffffffffffffffffffffffffffffffffffffff1673ffffffffffffffffffffffffffffffffffffffff166338cc48316040518163ffffffff167c0100000000000000000000000000000000000000000000000000000000028152600401602060405180830381600087803b151561350f57600080fd5b5af1151561351c57600080fd5b5050506040518051905073ffffffffffffffffffffffffffffffffffffffff16600260009054906101000a900473ffffffffffffffffffffffffffffffffffffffff1673ffffffffffffffffffffffffffffffffffffffff1614151561365957600160009054906101000a900473ffffffffffffffffffffffffffffffffffffffff1673ffffffffffffffffffffffffffffffffffffffff166338cc48316040518163ffffffff167c0100000000000000000000000000000000000000000000000000000000028152600401602060405180830381600087803b151561360157600080fd5b5af1151561360e57600080fd5b50505060405180519050600260006101000a81548173ffffffffffffffffffffffffffffffffffffffff021916908373ffffffffffffffffffffffffffffffffffffffff1602179055505b600260009054906101000a900473ffffffffffffffffffffffffffffffffffffffff1673ffffffffffffffffffffffffffffffffffffffff1663abaa5f3e6040518163ffffffff167c0100000000000000000000000000000000000000000000000000000000028152600401602060405180830381600087803b15156136de57600080fd5b5af115156136eb57600080fd5b50505060405180519050905090565b6000613704615028565b6000600160009054906101000a900473ffffffffffffffffffffffffffffffffffffffff1673ffffffffffffffffffffffffffffffffffffffff16148061377557506000613773600160009054906101000a900473ffffffffffffffffffffffffffffffffffffffff166127f1565b145b156137865761378460006127fc565b505b600160009054906101000a900473ffffffffffffffffffffffffffffffffffffffff1673ffffffffffffffffffffffffffffffffffffffff166338cc48316040518163ffffffff167c0100000000000000000000000000000000000000000000000000000000028152600401602060405180830381600087803b151561380b57600080fd5b5af1151561381857600080fd5b5050506040518051905073ffffffffffffffffffffffffffffffffffffffff16600260009054906101000a900473ffffffffffffffffffffffffffffffffffffffff1673ffffffffffffffffffffffffffffffffffffffff1614151561395557600160009054906101000a900473ffffffffffffffffffffffffffffffffffffffff1673ffffffffffffffffffffffffffffffffffffffff166338cc48316040518163ffffffff167c0100000000000000000000000000000000000000000000000000000000028152600401602060405180830381600087803b15156138fd57600080fd5b5af1151561390a57600080fd5b50505060405180519050600260006101000a81548173ffffffffffffffffffffffffffffffffffffffff021916908373ffffffffffffffffffffffffffffffffffffffff1602179055505b60036040518059106139645750595b90808252806020026020018201604052801561399a57816020015b61398761503c565b81526020019060019003908161397f5790505b5090508360006003811015156139ac57fe5b60200201518160008151811015156139c057fe5b906020019060200201819052508360016003811015156139dc57fe5b60200201518160018151811015156139f057fe5b90602001906020020181905250836002600381101515613a0c57fe5b6020020151816002815181101515613a2057fe5b90602001906020020181905250613a398686838661440b565b915050949350505050565b8060046000846000191660001916815260200190815260200160002081600019169055505050565b8060039080519060200190613a82929190615050565b5050565b613a8e614fd2565b600080600084870192508286511015613aa657600080fd5b8760200191508460200190505b868860200101821015613adb5781890151808288015250602082019150602081019050613ab3565b85935050505095945050505050565b600080600060019150600090505b83518160ff161015613bf157838160ff16815181101515613b1557fe5b9060200101517f010000000000000000000000000000000000000000000000000000000000000090047f0100000000000000000000000000000000000000000000000000000000000000027effffffffffffffffffffffffffffffffffffffffffffffffffffffffffffff1916858260ff16602081101515613b9357fe5b1a7f0100000000000000000000000000000000000000000000000000000000000000027effffffffffffffffffffffffffffffffffffffffffffffffffffffffffffff1916141515613be457600091505b8080600101915050613af8565b819250505092915050565b6000806000806000613c0c614fd2565b6000613c16614fd2565b6020604051805910613c255750595b9080825280601f01601f1916602001820160405250925060208a6003815181101515613c4d57fe5b9060200101517f010000000000000000000000000000000000000000000000000000000000000090047f0100000000000000000000000000000000000000000000000000000000000000027f01000000000000000000000000000000000000000000000000000000000000009004036004019150613cd08a836020866000613a86565b92506020604051805910613ce15750595b9080825280601f01601f19166020018201604052509050602282019150613d908a60208c60018603815181101515613d1557fe5b9060200101517f010000000000000000000000000000000000000000000000000000000000000090047f0100000000000000000000000000000000000000000000000000000000000000027f010000000000000000000000000000000000000000000000000000000000000090040384016020846000613a86565b90506020830151945060208101519350613dad8b601b878761493f565b80975081985050508573ffffffffffffffffffffffffffffffffffffffff16896040518082805190602001908083835b602083101515613e025780518252602082019150602081019050602083039250613ddd565b6001836020036101000a03801982511681845116808217855250505050505090500191505060405180910390206001900473ffffffffffffffffffffffffffffffffffffffff161415613e585760019750613f05565b613e658b601c878761493f565b80975081985050508573ffffffffffffffffffffffffffffffffffffffff16896040518082805190602001908083835b602083101515613eba5780518252602082019150602081019050602083039250613e95565b6001836020036101000a03801982511681845116808217855250505050505090500191505060405180910390206001900473ffffffffffffffffffffffffffffffffffffffff161497505b505050505050509392505050565b600080613f1e614fd2565b613f26614fd2565b613f2e614fd2565b613f36614fd2565b613f3e614fd2565b613f46614fd2565b613f4e614fd2565b60028b60018c01815181101515613f6157fe5b9060200101517f010000000000000000000000000000000000000000000000000000000000000090047f0100000000000000000000000000000000000000000000000000000000000000027f0100000000000000000000000000000000000000000000000000000000000000900401604051805910613fdd5750595b9080825280601f01601f191660200182016040525096506140038b8b89518a6000613a86565b50604080518059106140125750595b9080825280601f01601f191660200182016040525095506140398b60046040896000613a86565b5060626040518059106140495750595b9080825280601f01601f1916602001820160405250945060017f01000000000000000000000000000000000000000000000000000000000000000285600081518110151561409357fe5b9060200101907effffffffffffffffffffffffffffffffffffffffffffffffffffffffffffff1916908160001a9053506140d58b60418c036041886001613a86565b506040805190810160405280602081526020017ffd94fa71bc0ba10d39d464d0d8f465efeef0a2764e3887fcc9df41ded20f505c815250935061411e8460006020886042613a86565b506141a86002866040518082805190602001908083835b60208310151561415a5780518252602082019150602081019050602083039250614135565b6001836020036101000a0380198251168184511680821785525050505050509050019150506020604051808303816000865af1151561419857600080fd5b5050604051805190508888613bfc565b97506000151588151514156141c057600098506143fd565b606060405190810160405280604081526020017f7fb956469c5c9b89840d55b43537e66a98dd4811ea0a27224272c2e5622911e881526020017f537a2f8e86a46baec82864e98dd01e9ccc2f8bc5dfc9cbe5a91a290498dd96e48152509250604260405180591061422e5750595b9080825280601f01601f1916602001820160405250915060fe7f01000000000000000000000000000000000000000000000000000000000000000282600081518110151561427857fe5b9060200101907effffffffffffffffffffffffffffffffffffffffffffffffffffffffffffff1916908160001a9053506142b88b60036041856001613a86565b5060028b60458151811015156142ca57fe5b9060200101517f010000000000000000000000000000000000000000000000000000000000000090047f0100000000000000000000000000000000000000000000000000000000000000027f01000000000000000000000000000000000000000000000000000000000000009004016040518059106143465750595b9080825280601f01601f1916602001820160405250905061436d8b60448351846000613a86565b506143f76002836040518082805190602001908083835b6020831015156143a95780518252602082019150602081019050602083039250614384565b6001836020036101000a0380198251168184511680821785525050505050509050019150506020604051808303816000865af115156143e757600080fd5b5050604051805190508285613bfc565b97508798505b505050505050505092915050565b600080614416614fd2565b6000600160009054906101000a900473ffffffffffffffffffffffffffffffffffffffff1673ffffffffffffffffffffffffffffffffffffffff16148061448757506000614485600160009054906101000a900473ffffffffffffffffffffffffffffffffffffffff166127f1565b145b156144985761449660006127fc565b505b600160009054906101000a900473ffffffffffffffffffffffffffffffffffffffff1673ffffffffffffffffffffffffffffffffffffffff166338cc48316040518163ffffffff167c0100000000000000000000000000000000000000000000000000000000028152600401602060405180830381600087803b151561451d57600080fd5b5af1151561452a57600080fd5b5050506040518051905073ffffffffffffffffffffffffffffffffffffffff16600260009054906101000a900473ffffffffffffffffffffffffffffffffffffffff1673ffffffffffffffffffffffffffffffffffffffff1614151561466757600160009054906101000a900473ffffffffffffffffffffffffffffffffffffffff1673ffffffffffffffffffffffffffffffffffffffff166338cc48316040518163ffffffff167c0100000000000000000000000000000000000000000000000000000000028152600401602060405180830381600087803b151561460f57600080fd5b5af1151561461c57600080fd5b50505060405180519050600260006101000a81548173ffffffffffffffffffffffffffffffffffffffff021916908373ffffffffffffffffffffffffffffffffffffffff1602179055505b600260009054906101000a900473ffffffffffffffffffffffffffffffffffffffff1673ffffffffffffffffffffffffffffffffffffffff16632ef3accc87866040518363ffffffff167c01000000000000000000000000000000000000000000000000000000000281526004018080602001838152602001828103825284818151815260200191508051906020019080838360005b838110156147185780820151818401526020810190506146fd565b50505050905090810190601f1680156147455780820380516001836020036101000a031916815260200191505b509350505050602060405180830381600087803b151561476457600080fd5b5af1151561477157600080fd5b505050604051805190509150833a02670de0b6b3a76400000182111561479d5760006001029250614935565b6147a685614983565b9050600260009054906101000a900473ffffffffffffffffffffffffffffffffffffffff1673ffffffffffffffffffffffffffffffffffffffff1663c55c1cb683898985896040518663ffffffff167c0100000000000000000000000000000000000000000000000000000000028152600401808581526020018060200180602001848152602001838103835286818151815260200191508051906020019080838360005b8381101561486657808201518184015260208101905061484b565b50505050905090810190601f1680156148935780820380516001836020036101000a031916815260200191505b50838103825285818151815260200191508051906020019080838360005b838110156148cc5780820151818401526020810190506148b1565b50505050905090810190601f1680156148f95780820380516001836020036101000a031916815260200191505b5096505050505050506020604051808303818588803b151561491a57600080fd5b5af1151561492757600080fd5b505050506040518051905092505b5050949350505050565b60008060008060405188815287602082015286604082015285606082015260208160808360006001610bb8f192508051915050818193509350505094509492505050565b61498b614fd2565b600080614996615028565b60008060006149a3614fd2565b60008060008b51995060009850896040518059106149be5750595b9080825280602002602001820160405280156149f457816020015b6149e161503c565b8152602001906001900390816149d95790505b509750600096505b89871015614a8d578b87815181101515614a1257fe5b906020019060200201518888815181101515614a2a57fe5b906020019060200201819052506003601760018a8a815181101515614a4b57fe5b906020019060200201515103811515614a6057fe5b048989815181101515614a6f57fe5b906020019060200201515101018901985086806001019750506149fc565b6000955060808a019450600160ff168901985088604051805910614aae5750595b9080825280601f01601f191660200182016040525093505b85600160ff161115614b7057847f01000000000000000000000000000000000000000000000000000000000000000286600181101515614b0257fe5b1a7f0100000000000000000000000000000000000000000000000000000000000000028487815181101515614b3357fe5b9060200101907effffffffffffffffffffffffffffffffffffffffffffffffffffffffffffff1916908160001a9053508580600101965050614ac6565b600096505b89871015614e5c57605f7f0100000000000000000000000000000000000000000000000000000000000000028487815181101515614baf57fe5b9060200101907effffffffffffffffffffffffffffffffffffffffffffffffffffffffffffff1916908160001a9053508580600101965050600092505b8787815181101515614bfa57fe5b9060200190602002015151831015614de5576000601784811515614c1a57fe5b061415614d22576018838989815181101515614c3257fe5b9060200190602002015151031015614c6457828888815181101515614c5357fe5b906020019060200201515103614c67565b60175b91506040820191508590505b808603600160ff161115614d2157817f010000000000000000000000000000000000000000000000000000000000000002818703600181101515614cb357fe5b1a7f0100000000000000000000000000000000000000000000000000000000000000028487815181101515614ce457fe5b9060200101907effffffffffffffffffffffffffffffffffffffffffffffffffffffffffffff1916908160001a9053508580600101965050614c73565b5b8787815181101515614d3057fe5b9060200190602002015183815181101515614d4757fe5b9060200101517f010000000000000000000000000000000000000000000000000000000000000090047f0100000000000000000000000000000000000000000000000000000000000000028487815181101515614da057fe5b9060200101907effffffffffffffffffffffffffffffffffffffffffffffffffffffffffffff1916908160001a90535085806001019650508280600101935050614bec565b60ff7f0100000000000000000000000000000000000000000000000000000000000000028487815181101515614e1757fe5b9060200101907effffffffffffffffffffffffffffffffffffffffffffffffffffffffffffff1916908160001a90535085806001019650508680600101975050614b75565b839a5050505050505050505050919050565b60e060405190810160405280600073ffffffffffffffffffffffffffffffffffffffff168152602001614e9f6150d0565b815260200160008152602001600081526020016000815260200160008152602001600081525090565b815481835581811511614ef557600802816008028360005260206000209182019101614ef491906150e4565b5b505050565b828054600181600116156101000203166002900490600052602060002090601f016020900481019282601f10614f3b57805160ff1916838001178555614f69565b82800160010185558215614f69579182015b82811115614f68578251825591602001919060010190614f4d565b5b509050614f769190615162565b5090565b815481835581811511614fa157818360005260206000209182019101614fa09190615162565b5b505050565b815481835581811511614fcd57818360005260206000209182019101614fcc9190615162565b5b505050565b602060405190810160405280600081525090565b6060604051908101604052806003905b614ffe61503c565b815260200190600190039081614ff65790505090565b602060405190810160405280600081525090565b602060405190810160405280600081525090565b602060405190810160405280600081525090565b828054600181600116156101000203166002900490600052602060002090601f016020900481019282601f1061509157805160ff19168380011785556150bf565b828001600101855582156150bf579182015b828111156150be5782518255916020019190600101906150a3565b5b5090506150cc9190615162565b5090565b602060405190810160405280600081525090565b61515f91905b8082111561515b57600080820160006101000a81549073ffffffffffffffffffffffffffffffffffffffff021916905560018201600061512a9190615187565b60028201600090556003820160009055600482016000905560058201600090556006820160009055506008016150ea565b5090565b90565b61518491905b80821115615180576000816000905550600101615168565b5090565b90565b50805460018160011615610100020316600290046000825580601f106151ad57506151cc565b601f0160209004906000526020600020908101906151cb9190615162565b5b505600a165627a7a72305820585518b87c716c970d0d6e74a304717db14fc31422f95dfc12e8aa3cf1f24a580029",
  "source": "pragma solidity ^0.4.19;\n\n//import 'node_modules/zeppelin-solidity/contracts/ownership/Ownable.sol';\nimport \"./usingOraclize.sol\";\nimport \"./Ownable.sol\";\n\ncontract RaffleTruffle is Ownable, usingOraclize {\n    //Only for Oraclize testing\n    function RaffleTruffle() {\n          OAR = OraclizeAddrResolverI(0x6f485C8BF6fc43eA212E93BBF8ce046C7f1cb475);\n    }\n\n\n    // ------------- Events --------------------\n    event NewLottery(uint lotteryId, string name);\n    event LotteryWinner(uint lotteryId, address winner, uint luckyTicket);\n    //event PurchasedTicket(address player, uint lotteryId, uint[] ticketsId);\n\n    // ------------- Variables -----------------\n    //uint public contractBalance;\n    uint public dailyJackpotRate = 10; // 10% of the ticket price is added to the daily jackpot\n    uint public creatorRate = 5;       // 5% of the ticket price is given to the creator of the lottery\n    uint public ownerRate = 5;         // 5% of the ticket price is given to the owner of the contract\n    uint public maxDuration = 604800001; // 7 days plus one millisecond, it could be incremented in future\n\n    uint public dailyJackpot; \n    uint public nextDailyJackpot; //jackpot accumolated today from tomorrow, it will become dailyJackpot\n    uint public basicTicketPrice = 2 finney; //2 finney  \n    uint public basicLotteryPrice = 4 finney; //half for the house and half for the initial jackpot \n\n    struct Lottery {\n        address creator;\n        string name;\n        uint jackpot;\n        uint maxTickets; //if maxTicket is 0 there's no limit\n        uint ticketPrice;\n        uint ticketCount;\n        uint endTime; //uint64 endTime;\n        mapping(uint => address) ticketToAddress; //The index of an element in this array correspond to the ticket number\n    }\n\n    uint[] public endingLotteries; //id of lotteries that are waiting for the Oraclize callback function\n    Lottery[] public lotteries;\n\n    mapping (uint => address) public lotteryToWinner;\n    mapping (uint => address) public lotteryToTerminator;\n    mapping (address => uint) public playerLotteryCount;\n\n    // ------------- Functions --------------------\n\n    //fallback function\n    function() public payable {}\n\n    /*function _createDailyLottery(string _name, uint _initialOffer, uint64 _durationTime, uint _entry) internal {\n        uint id = lotteries.push(Lottery(_creator, _name, _initialOffer, uint64(now + _durationTime), _entry)) - 1;\n        NewLottery(id, _name);\n    }*/\n\n    // \"greatLottery\", 0.002\n    function createLottery(string name, uint ticketPrice, uint maxTickets, uint duration) public payable {\n        require(duration < maxDuration);\n        require(msg.value == (basicLotteryPrice + ticketPrice)); //to open a lottery you need to pay the basicLotteryPrice and buy the first ticket which price will be entirely added to the jackpot\n  \n        Lottery memory newLottery;\n\n        newLottery.creator = msg.sender;\n        newLottery.name = name;\n        newLottery.jackpot = basicLotteryPrice/2 + ticketPrice;\n        newLottery.maxTickets = maxTickets;\n        newLottery.ticketPrice = ticketPrice;\n        newLottery.ticketCount = 1;\n        newLottery.endTime = now + duration;\n\n        uint id = lotteries.push(newLottery) - 1;\n        lotteries[id].ticketToAddress[1] = msg.sender;\n\n        emit NewLottery(id, name);\n    }\n\n    // finish a lottery and earn 1% of the jackpot with a death click!\n    function endLottery(uint lotteryId) public {\n      require(_isFinished(lotteries[lotteryId])); //lottery must be finished\n      require(lotteryToTerminator[lotteryId] == address(0)); // require no one has already terminated the jackpot\n\n      lotteryToTerminator[lotteryId] = msg.sender;\n      msg.sender.transfer(lotteries[lotteryId].jackpot*1/100);\n\n      if(lotteries[lotteryId].ticketCount == 1){\n        lotteries[lotteryId].creator.transfer(lotteries[lotteryId].jackpot); // everything to the creator \n      }else{\n        endingLotteries.push(lotteryId);\n        _requestRandomNumber(); //call the random function\n      }\n    }\n\n    function _isFinished(Lottery lottery) internal view returns (bool) {\n        return (lottery.endTime <= now);\n    }\n\n\n    function joinLottery(uint lotteryId) public payable {\n        Lottery storage myLottery = lotteries[lotteryId];\n        require(!_isFinished(myLottery));                 //check lottery is not finished\n        require(myLottery.ticketPrice == msg.value);      //check the value sent by the user is equal or more than the requested value\n\n        if(myLottery.creator != address(this)){\n            myLottery.creator.transfer(myLottery.ticketPrice*(creatorRate/100)); //transfer to the creator\n            owner.transfer(myLottery.ticketPrice*(ownerRate/100));               //transfer to the owner\n        }else{\n            owner.transfer(myLottery.ticketPrice*((creatorRate + ownerRate)/100)); //if the creator of the lottery is the contract send to the owner the creator + owner Rate directly\n        }\n        \n        //for every ticket purchased increment the ticket number and add that number to the ticketToAddress mapping\n        myLottery.ticketCount++;\n        myLottery.ticketToAddress[myLottery.ticketCount] = msg.sender;\n\n        //increment the daily jackpot with the dailyJackpotRate of the amount sent by the address\n        dailyJackpot = dailyJackpot + myLottery.ticketPrice*(dailyJackpotRate/100); \n\n        //increment the lottery with the remaining Rate\n        myLottery.jackpot = myLottery.jackpot + myLottery.ticketPrice*((100 - (dailyJackpotRate + creatorRate + ownerRate))/100); \n    }\n\n    function getWinnerByLottery(uint _lotteryId) external view returns(address) {\n        return lotteryToWinner[_lotteryId];\n    }\n\n    function jackpotDonation(uint lotteryId) public payable {   //everyone can make donations to jackpots without paying rates\n        lotteries[lotteryId].jackpot = lotteries[lotteryId].jackpot + msg.value;\n    }\n\n    /*\n    function getLotteriesByPlayer(address _player) external view returns(uint[]) {\n        uint[] memory result = new uint[](playerLotteryCount(_player));\n    }*/\n\n\n\n    //cash stuff\n    function withdraw() external onlyOwner {\n        owner.transfer(this.balance);\n    }\n\n    function getContractBalance() external view returns(uint) {\n        return this.balance;\n    }\n\n\n    //owner tools\n    //consider splitting setRate in order to spend less gas \n    function setRate(uint newJackpotRate, uint newCreatorRate, uint newOwnerRate) public onlyOwner {\n        //the owner won't be able to reduce the Rate for the jackpot less than 50%\n        require(newJackpotRate + newCreatorRate + newOwnerRate < 51); \n        dailyJackpotRate = newJackpotRate;\n        creatorRate = newCreatorRate;\n        ownerRate = newOwnerRate;\n    }\n\n    //HELPERS\n    function ticketToAddress(uint lotteryId, uint ticket) public view returns(address) {\n        return lotteries[lotteryId].ticketToAddress[ticket];\n    }\n\n\n    //ORACLIZE\n    //Oraclize random number functions\n    // the callback function is called by Oraclize when the result is ready\n    // the oraclize_randomDS_proofVerify modifier prevents an invalid proof to execute this function code:\n    // the proof validity is fully verified on-chain\n\n  function _requestRandomNumber() internal{\n    oraclize_setProof(proofType_Ledger); // sets the Ledger authenticity proof in the constructor\n    uint N = 4; // number of random bytes we want the datasource to return\n    uint delay = 0; // number of seconds to wait before the execution takes place\n    uint callbackGas = 200000; // amount of gas we want Oraclize to set for the callback function\n    bytes32 queryId = oraclize_newRandomDSQuery(delay, N, callbackGas); // this function internally generates the correct oraclize_query and returns its queryId\n  }\n\n  function __callback(bytes32 _queryId, string _result, bytes _proof) {\n      require (msg.sender == oraclize_cbAddress());\n      require(oraclize_randomDS_proofVerify__returnCode(_queryId, _result, _proof) == 0); //must pass the proof verification\n    \n      uint lotteryId = endingLotteries[0]; //endingLotteries[0] is the first lotteryId that asked for a random number\n\n      //this is the highest uint we want to get. It should never be greater than 2^(8*N), where N is the number of random bytes we had asked the datasource to return\n      uint maxRange = lotteries[lotteryId].ticketCount; \n      uint randomNumber = uint(sha3(_result)) % maxRange; // this is an efficient way to get the uint out in the [0, maxRange] range\n      \n      //And the winner is ...\n      lotteryToWinner[lotteryId] = lotteries[lotteryId].ticketToAddress[randomNumber];\n      emit LotteryWinner(lotteryId, lotteryToWinner[lotteryId], uint(randomNumber));\n\n      //remove the lottery from the endingLotteries array\n      delete endingLotteries[0];\n\n       //move the other elements of the array in order to avoid gaps\n      if(endingLotteries.length > 1){\n        for(uint i = 0; i < endingLotteries.length-1; i++){\n            endingLotteries[i] = endingLotteries[i+1];\n        }\n        endingLotteries.length--;\n      }\n\n    }\n\n\n   \n        \n}\n    \n\n/* Yo! Yo! Yo! \n\n  This contract is indestructible so everything I'm writing here will last as long as the ethereum blockchain will run.\n  I just wanted to say: hi mum! Sorry if I didn't clean up my room I was creating a smart contract!\n\n  Oh! I forget my girlfriend! I think that writing here our initials is better than writing on the wood. (Wood is not forever, blockchain is)\n  So: F + G = <3 \n\n*/",
  "sourcePath": "C:\\Users\\Damiano\\Desktop\\DAPP\\vue-truffle-dapp\\contracts\\RaffleTruffle.sol",
  "compiler": {
    "name": "solc",
    "version": "0.4.21+commit.dfe3193c.Emscripten.clang"
  },
  "schemaVersion": "2.0.0",
  "updatedAt": "2018-04-20T03:33:28.942Z"
}